:10000000B82000202501000021010000210100008E
:1000100000000000000000000000000000000000E0
:1000200000000000000000000000000021010000AE
:10003000000000000000000021010000210100007C
:100040002101000021010000210100002101000028
:100050002101000021010000210100002101000018
:100060002101000021010000210100002101000008
:1000700021010000210100002101000021010000F8
:1000800021010000210100002101000021010000E8
:1000900021010000210100002101000021010000D8
:1000A00021010000210100002101000021010000C8
:1000B0000000000010B5064C2378002B07D1054B3B
:1000C000002B02D0044800E000BF0123237010BDC4
:1000D0006400002000000000D41A0000084B10B596
:1000E000002B03D00749084800E000BF0748036819
:1000F000002B00D110BD064B002BFBD09847F9E731
:100100000000000068000020D41A0000D41A00008B
:100110000000000010B5014B984710BD910300008E
:10012000FEE70000F8B5234A234B9A4209D0224B40
:10013000204A03E011681960043304321F498B42DE
:10014000F8D31F4B02E000221A6004331D4A934289
:10015000F9D31D4AFF211D4B8B439360FD3990233A
:100160005B001B4AD1501B4AD3780325AB430224C2
:100170002343D370D3780C27BB4308263343D37073
:10018000154B987B30229043202210439873997B23
:10019000B943314399739A7BAA4322439A730F4A16
:1001A000516880230B4353600D4B98470D4B984784
:1001B000FEE7C046D41A00000000002064000020C2
:1001C00064000020B800002000ED00E00000000006
:1001D00000700041005000410048004100400041D3
:1001E00095100000910E0000F0B5C64600B5C02283
:1001F000D205102353619360254B26499962C02193
:1002000009068C4699624420195C0127B9430126EE
:100210003143C9B219543221585C0F25A843032435
:10022000A04644462043C0B25854202050619060FC
:10023000194898626046986245208446185CB84325
:100240003043C0B264461855585C363C20403024D8
:10025000A44664462043C0B258540E3151600F4A40
:100260009A620F4A9A624622995C0420814399540B
:10027000995CB9433143C9B2995433215A5CAA43BA
:1002800040460243D2B25A5404BC9046F0BDC04628
:1002900000440041100000402000004040000240A7
:1002A000000002C0044A136A04210B431362034A8C
:1002B000034B5A807047C0460004004014400000C1
:1002C000000C004010B5044B984704490448054B06
:1002D0009847054B984710BDA50200000008004252
:1002E00090000020DD040000E901000030B50F4B54
:1002F0005622995C0125A94301242143C9B299548E
:100300003B20195C473A914302221143C9B2195468
:1003100057215A5CAA432243D2B25A541A5C483934
:100320000A4020210A43D2B21A5430BD0044004191
:10033000044A136A20210B431362034A034B5A8079
:100340007047C0460004004017400000000C004009
:1003500010B5054B9847002204490548054B9847BE
:10036000054B984710BDC046310300000014004201
:10037000A8000020FD060000ED02000010B50248B4
:10038000024B984710BDC04610E000E03904000061
:1003900070B5204B9847C022D20504235361936067
:1003A0001D4B1E499962C021090699624224185DBD
:1003B0000121884318550534185D88431855802558
:1003C0002D025560164898621648986255600834A8
:1003D000185D04263043C0B218559561185D8843F6
:1003E00018557534185D884318558020C005303C79
:1003F00010510C3C1051A82298500B489850DE2008
:100400001A5C8A431A54094B9847094B9847094B81
:10041000984770BDB9070000004400410400004047
:1004200000800240000002C0004000C0C502000081
:10043000510300007D03000010B5024B1860024B11
:10044000984710BD80000020B10D000010B5044B8E
:100450001C68044B984701002000034B984710BDCF
:1004600080000020A1070000BD0D000070B5040051
:100470000D00160000280ED000290AD001203422D9
:100480000649074B98472368320029002000984707
:1004900070BD0020F3E70020F1E7C0463C190000E2
:1004A0007507000070B504000D00160000280ED07E
:1004B00000290AD001203D220649074B984763686E
:1004C000320029002000984770BD0020F3E700208B
:1004D000F1E7C0463C1900007507000070B5040044
:1004E0000D00002817D0002913D0012040220B490D
:1004F0000B4B98476560201D29000A4B9847002840
:1005000006DB094BA382094B2361094BE360002002
:1005100070BD0020EAE70020E8E7C046501900005F
:1005200075070000FD0900000080FFFFE1050000E5
:10053000A505000010B50400431E9841C0B2572223
:100540000349044B9847201D034B984710BDC046F4
:100550005019000075070000F90B000030B587B096
:1005600004000D00002815D0002911D00120B3226D
:1005700009490A4B98472B6803936B680493AB684F
:1005800001930593201D03A9054B984707B030BD83
:100590000020ECE70020EAE7501900007507000092
:1005A0002D0C000070B584B004000E001500431E31
:1005B0009841C0B2A3220749074B984720000C3846
:1005C000002302930196039501A9044B984704B0B8
:1005D00070BDC04650190000750700005D050000A1
:1005E00070B584B004000E001500431E9841C0B2DF
:1005F00087220749074B984720000C3802960023B2
:100600000193039501A9044B984704B070BDC046FF
:1006100050190000750700005D050000F8B50500E1
:100620000E001700002823D0002923D0002A23D150
:100630000020F1221149124B98472C000834200069
:10064000104B98470028F8D00025715D20000E4B14
:10065000984720000B4B98470028FAD00135BD423F
:10066000F3D32000094B98470028FAD02800F8BDA2
:100670000020DEE70020DCE70120DAE76C1900004B
:1006800075070000DB090000CB090000E509000048
:10069000F8B5CE46474680B5051E884691461FD020
:1006A00000291FD0002A1FD10020862252000F49A6
:1006B0000F4B984700262C00083420000D4B98471C
:1006C0000028F8D043469F1920000B4B98473870FC
:1006D00001364E45EFD330000CBC90469946F8BD2C
:1006E0000020E2E70020E0E70120DEE76C190000CF
:1006F00075070000F1090000D309000070B504007F
:100700000D00002814D0002910D0012034220949FE
:10071000094B9847200008302900084B98470028CB
:1007200003D1074B6360074B236070BD0020EDE7EA
:100730000020EBE76C190000750700008D09000030
:10074000910600001D06000010B50400431E9841EC
:10075000C0B253220449054B984720000830044B8F
:100760009847002010BDC0466C19000075070000B6
:10077000B9090000002800D100BE70470300064AF6
:100780001268002A04D0044A1068C3181360704726
:100790000249014A1160F6E784000020B8200020D9
:1007A00010B503006420584301386421014B984779
:1007B000013010BD7D0F000010B5064B5A685A601D
:1007C000054B9847054B9847054B9847FF20054B2D
:1007D000984710BD0040004109080000410D00008D
:1007E0008D0D0000E9070000C3070AD5054B8022E4
:1007F00052009A60832252025A60024B5B78DB09F6
:10080000FBD17047000C0040064B1A7AD2B21A7224
:100810005A7AD2B25A729A7AD2B29A72DA7AD2B238
:10082000DA72704700040040024B9C466044800A24
:10083000C0B2704700F8FFBDC369DB0708D4036886
:10084000022213430360C3699B07FCD10020704759
:1008500004204042FBE7000010B50B4B9847020014
:100860000020002806D0094A09490020094B984772
:10087000002010BD83001B189900074BCB5C9A42E7
:10088000F7D00130C0B2ECE7290800003A020000BE
:10089000D8190000750700008819000070B5040021
:1008A000384B9847E369DB071DD483001B189A0077
:1008B000354B9B185A681C231A40E3699B07FCD1EF
:1008C00023689B0709D5236802218B432360E369D2
:1008D0009B07FCD1E3699B07FCD4012313432360EE
:1008E000E3699B07FCD1E369DB07FCD483001B1899
:1008F0009A00254B9B185B682360E3699B07FCD13A
:1009000083001B189A00204B9B189B686360E36967
:100910005B07FCD183001B189A001B4B9B185B687C
:100920009A040BD4C022D201134207D183001B18B2
:100930009A00154B9B189B89A38115E083001B1817
:100940009A00114989188A89A389D204D20C5B0BB9
:100950005B031343A3818B7B07221A40A3895203B5
:10096000DB04DB0C1343A381074A83001D18A90095
:100970000D005118C97BA1735219127C3023E25427
:10098000002070BD590800008819000070B50500EE
:100990000C00431E9841C0B2B4220449044B98474E
:1009A0002C602000034B984770BDC046D81900004A
:1009B000750700009D0800000268136802210B43C0
:1009C0001360D3699B07FCD17047036889B219850E
:1009D00070470368188DC0B270470368187E012302
:1009E0001840704703681B7E5B0801201840704761
:1009F00003681B7E9B0801201840704770B50600F5
:100A00000C000800714B98470023002B00D184E0B4
:100A10000025002E00D18DE0002C00D188E00120BF
:100A20006B4A6C496C4B9847002D00D1CBE0E369D1
:100A3000DB0721D42A786B781B021343AA781204AF
:100A40001343EA7812061A431C231A40E3699B07F2
:100A5000FCD123689B0709D5236802218B432360BF
:100A6000E3699B07FCD1E3699B07FCD40123134393
:100A70002360E3699B07FCD1E369DB07FCD43460A6
:100A80002B786A7812021A43AB781B041A43EB786E
:100A90001B0613431C221340082B4DD0002C00D101
:100AA0008DE0002D00D188E001204C4A49494A4B95
:100AB00098472B786A7812021A43AB781B041A43C2
:100AC000EB781B061343464A13402360E3699B07F8
:100AD000FCD12B796A7912021A43AB791B041A43B1
:100AE000EB791B0613433F4A1340802292021343C3
:100AF0006360E3695B07FCD12B7B23736A7B302344
:100B0000E2542B795B075CD101233371AA7BEB7B29
:100B10001B021343F380002070BD002802D0013374
:100B2000DBB272E71D01EA182F4D3C35AD1870E7B6
:100B3000002075E7002073E7002C3CD0002D38D052
:100B400001202A4A2349244B98472B786A781202BD
:100B50001A43AB781B041A43EB781B061343204A55
:100B600013402360E3699B07FCD12B796A79120259
:100B70001A43AB791B041A43EB791B0613431C4A37
:100B800013401C4A13436360E3695B07FCD12B7A73
:100B90006A7A12021A43AB7A1B041A43EB7A1B06D9
:100BA000134363626A7B3023E254E369002BFCD178
:100BB000A7E70020C5E70020C3E7002075E7002075
:100BC00073E70223A1E70D204042A5E729080000B2
:100BD00025090000D819000075070000EF08000083
:100BE000FCFEFFFFBF1DFDFF881900000309000088
:100BF000BFDDFDFF4002020010B5041E0ED00368E9
:100C0000002B09D00120982212010549054B984775
:100C10002068054B984710BD0020F4E70020F2E75C
:100C2000D81900007507000039080000F0B5CE465D
:100C3000474680B589B081460D0004680B68039370
:100C40004B6804930023059306930679002814D07B
:100C5000002C10D00120374A3749384B9847E369B8
:100C60005B0764D1E3699B07FCD123689B0720D411
:100C70001420404256E00020EDE70020EBE7002280
:100C80002DE04878000247460743B84602310391F9
:100C9000013205924246A2625BB2002B35DB002096
:100CA00000283ADB0598AB68984202D3069A934233
:100CB00033D9237EDBB25A07E1D5A16A049A002A10
:100CC00008D0501C04901170012E03D9901C049080
:100CD000090A5170069A0192013206920122002AF5
:100CE000DAD10699059A9142D6D34946C888D907E0
:100CF000D2D50399002906D0481C03900878804675
:100D0000012EBED8C4E78046C2E701235B4263835D
:100D10008133237613204042C2E7237E9B07FCD019
:100D20000323237609B00CBC90469946F0BD0420FD
:100D30004042F7E7850A0000D81900007507000057
:100D40000F4B196A090C1A6A920F920709040D4891
:100D500001400A430C490A431A629A6902210A4374
:100D60009A611A7F1D310A401A77054BDB681B0711
:100D7000FBD5034A136A80210B4313627047C046B8
:100D8000000800400000FF0F02030000024A9369C0
:100D900002218B439361704700080040024B034AD5
:100DA0005A6005221A60704710E000E0FFFFFF0064
:100DB00010B5014B984710BD9D0D0000080E0BE0CB
:100DC0000B4B0C4858609860094B1B68DB03FBD544
:100DD000094B9C4661441000421ED2B20028EFD15C
:100DE000034B59609960024B1B68DB03FBD57047CE
:100DF00010E000E0FFFFFF00010000FF70B584B0CD
:100E000003AB1870597000930023019302330293CF
:100E1000C024E405802565610120054EB047694680
:100E20000448054B98470120B047A56104B070BD48
:100E30004D040000900000205D05000010B5002367
:100E4000002106E00724E41A303AA2401143C9B257
:100E50000133072B05DCC25C312AF3D0302AF7D0EE
:100E60000021080010BD000070B506000D00002430
:100E7000AC4208DA311901220348044B9847012893
:100E8000F6D10134F4E770BDA8000020A5040000ED
:100E900070B594B00922002111A8274CA04709225F
:100EA00000210EA8A047254B9847C023DB058021D1
:100EB0009960234A23489062C0200006906299619D
:100EC0007C399960204C9462906299611F48204B54
:100ED0009847204C2000204B9847002100201F4BB2
:100EE00098470F221E4920001E4B9847082111A841
:100EF0001D4EB04711A81D4DA847040008210EA89B
:100F0000B0470EA8A84705002100144B98472B00B6
:100F10002200174901A8174CA04701A8164B984773
:100F200082B201A90B480F4B98478021C9059C2329
:100F3000C022D205D150D9E7DD1000001501000014
:100F40000044004180000040040000409000002068
:100F500035050000A800002049070000FD0D000035
:100F6000F41900006D040000690E00003D0E000041
:100F7000041A0000ED1000003111000000224308A7
:100F80008B4274D303098B425FD3030A8B4244D351
:100F9000030B8B4228D3030C8B420DD3FF22090293
:100FA00012BA030C8B4202D31212090265D0030B52
:100FB0008B4219D300E0090AC30B8B4201D3CB0348
:100FC000C01A5241830B8B4201D38B03C01A52418A
:100FD000430B8B4201D34B03C01A5241030B8B428C
:100FE00001D30B03C01A5241C30A8B4201D3CB0277
:100FF000C01A5241830A8B4201D38B02C01A52415C
:10100000430A8B4201D34B02C01A5241030A8B425E
:1010100001D30B02C01A5241CDD2C3098B4201D376
:10102000CB01C01A524183098B4201D38B01C01AF4
:10103000524143098B4201D34B01C01A524103096B
:101040008B4201D30B01C01A5241C3088B4201D31A
:10105000CB00C01A524183088B4201D38B00C01AC7
:10106000524143088B4201D34B00C01A5241411AEE
:1010700000D20146524110467047FFE701B50020FB
:1010800000F006F802BDC0460029F7D076E77047A9
:101090007047C04670B500260C4D0D4C641BA41063
:1010A000A64209D1002600F005FD0A4D0A4C641B3A
:1010B000A410A64205D170BDB300EB589847013685
:1010C000EEE7B300EB5898470136F2E7C01A00008C
:1010D000C01A0000C01A0000C41A000003008218E1
:1010E000934200D1704719700133F9E70EB410B57F
:1010F0009DB002A9029008610B4882248860486173
:10110000012040421FABC881084804CBA4000068FE
:1011100001938C8100F0D4F80023029A13701DB063
:1011200010BC08BC03B01847FFFFFF7F0000002081
:101130000023C25C0133002AFBD1581E7047000017
:10114000032370B5CD1C9D43083506000C2D1ED21F
:101150000C25A9421DD8300000F076FB254A146802
:101160002100002919D1244C2368002B03D1300021
:1011700000F032FB20602900300000F02DFB431C02
:101180002CD10C233000336000F05FFB03E0002D16
:10119000DFDA0C233360002070BD0B685B1B1AD4B0
:1011A0000B2B03D90B60CC18256003E08C420ED1C9
:1011B00063681360300000F048FB200007220B300A
:1011C000231D9043C31AE7D05A42E250E4E74B682C
:1011D00063600C00EEE70C004968C2E70323C41CFF
:1011E0009C43A042E0D0211A300000F0F5FA431CE5
:1011F000DAD1C6E7880000208C000020F0B58E68A8
:1012000085B007000C00039201939E4239D89023C9
:101210008A89DB001A4234D00325096923685B1AE6
:101220000293636902985D43EB0F5D19019B6D109A
:1012300001331B18AB4200D91D00530532D52900DC
:101240003800FFF77DFF061E09D10C233B604023C9
:101250000120A28940421343A38105B0F0BD029A48
:10126000216900F0D6FAA389144A1A408023134357
:10127000A381029B2661F61826606561019EED1A26
:10128000A560019BB34200D21E0032000399206882
:1012900000F0C8FAA36800209B1BA36023689E1976
:1012A0002660DAE72A00380000F01AFB061EE0D1BB
:1012B0002169380000F0CAFAC7E7C0467FFBFFFF8C
:1012C000F0B59FB0029005938B890F0016001B06A6
:1012D00011D50B69002B0ED14021FFF731FF38608B
:1012E0003861002805D10C23029A013813601FB021
:1012F000F0BD40237B61002306AD6B6120336B762C
:101300001033AB7634002378002B47D1A31B049312
:101310000DD0A31B320039000298FFF76FFF431C6A
:1013200000D1B5E06A69049B944663446B612378FD
:10133000002B00D1ACE00122002352426A6002A9D6
:101340005432521801342B60EB60AB601370AB6504
:10135000584E05222178300000F050FA621C002817
:1013600020D12968CB0604D5532302AE20309B1927
:1013700018700B0704D553232B2002AE9B1918704D
:1013800023782A2B16D000200A21099B2278303A94
:10139000092A55D9002815D0099313E0252BB5D07B
:1013A0000134B0E70123801B8340296814000B43FC
:1013B0002B60CDE7059B181D1B680590002B39DBC2
:1013C0000993140023782E2B0BD16378621C2A2BEF
:1013D0003ED1059B02341A1D1B680592002B34DB9D
:1013E0000793354E21780322300000F007FA0028D9
:1013F00006D04023801B83402A68013413432B60AE
:10140000217806222D48661C297600F0F7F900287D
:1014100046D02B4B002B2FD12968059B0722C905ED
:1014200028D59B189343083305936B69039A9B183F
:101430006B6167E75B42EB6002230B432B60C0E705
:101440004B4301349B180120A0E701235B42C7E70F
:10145000002314000A201A006B6021783039092912
:1014600003D9002BBDD00792BBE742430134521889
:101470000123F2E70733D5E705AB00933A00114BA0
:101480002900029800E000BF0390039B0133CCD1F8
:10149000BB890B985B0600D429E70120404226E770
:1014A00005AB00933A00074B2900029800F07AF848
:1014B000EAE7C046801A0000861A00008A1A000077
:1014C00000000000FD110000F7B5150001938A68C7
:1014D0000B6900900C00934200DA130022002B608D
:1014E00043321278002A01D001332B6023689B0617
:1014F00002D52B6802332B60062723681F4027D0B4
:10150000230043331B785A1E93412268920630D43D
:101510002200019943320098089EB047431C25D011
:10152000062320682A68E16803400025042B03D1C4
:101530008D1AEB43DB171D40A3682269934201DD3E
:101540009B1AED180027BD4220D1002010E0013782
:10155000E3682A689B1A9F42D2DA220001231932DB
:1015600001990098089EB047431CF0D101204042E9
:10157000FEBD3020E1184331087021005A1C45316E
:101580000978A218433202331170C1E72200012307
:101590001A3201990098089EB047431CE6D00137E3
:1015A000D1E70000F0B58BB006920A0043320793F2
:1015B000059004920A7E0C00109B6E2A00D18FE0E9
:1015C00017D8632A2CD008D8002A00D199E0582ACD
:1015D00054D026004236327029E0642A01D0692AAC
:1015E000F7D121681A68080623D5111D19601568FE
:1015F00025E0732A00D188E008D86F2A29D0702A04
:10160000E7D1202209680A43226003E0752A20D02E
:10161000782ADED122007821453211706C4A30E000
:101620000E001A684236111D1960136833700123C9
:1016300079E04906D9D5111D19600023D55E002D2A
:1016400003DA2D23049A6D421370624B0A27039329
:101650002FE020681968050603D5081D18600D687D
:1016600005E04006F9D50D68081D1860ADB2594B6C
:10167000082703936F2A18D00A2716E045310A700D
:10168000544A03921A682168101D186015680806EC
:1016900022D5CB0702D52023194321601027002D26
:1016A00003D1202322689A4322602300002243337F
:1016B0001A706368A360002B5CDB042221689143ED
:1016C0002160002D58D1049E002B64D02600039B7E
:1016D00042361B7833705EE04806DAD5ADB2D8E703
:1016E00009681A68080605D5111D19601368626932
:1016F0001A6006E04906F7D5111D19601368A28A21
:101700001A800023049E236154E01A68111D196099
:10171000166800216268300000F070F8002801D0DF
:10172000801B6060636823610023049A137041E0AA
:101730002369320006990598079DA847431C43D0AA
:10174000236800259B070FD4099BE06898423DDA87
:1017500018003BE022000123193206990598079EE4
:10176000B047431C30D00135E368099A9B1A9D426B
:10177000F0DBE9E7002DA9D0049E28003900FFF72F
:1017800083FC039B013E5B5C280033703900FFF74C
:10179000F5FB051EF1D1082F09D12368DB0706D51B
:1017A00063682269934202DC3023013E3370049B5C
:1017B0009B1B2361079B09AA00932100069B0598A8
:1017C000FFF782FE431CB3D1012040420BB0F0BDB5
:1017D000A21A0000911A0000002370B5064C050003
:1017E00008002360FEF7CAFF431C03D12368002BC7
:1017F00000D02B6070BDC046B4000020C9B2821872
:10180000904201D10020704703788B42FBD0013019
:10181000F6E7002310B59A4200D110BDCC5CC45449
:101820000133F8E710B5884202D98B18984208D3E3
:1018300000239A4207D0CC5CC4540133F9E78B5C97
:101840008354013AFBD210BD7047704770B5050054
:10185000002910D00C1F2368002B00DAE4182800A0
:10186000FFF7F2FF1D4A1368002B05D16360146077
:101870002800FFF7EAFF70BDA34209D9216860186C
:101880008342F3D118685B6841182160EEE71300CA
:101890005A68002A01D0A242F9D919685818A04202
:1018A0000BD120680918581819608242E0D11068DD
:1018B0005268411819605A60DAE7A04202D90C2335
:1018C0002B60D5E721686018824203D11068526806
:1018D0004118216062605C60CAE7C0468800002051
:1018E000F8B507000D001600002905D11100FFF71B
:1018F00027FC04002000F8BD002A03D1FFF7A6FF53
:101900003400F7E700F012F82C008642F2D93100DB
:101910003800FFF715FC041EECD029003200FFF759
:1019200078FF29003800FFF791FFE3E70B1F1B68E2
:10193000181F002B01DA0B58C01870472E2E2F6885
:10194000616C2F7372632F68616C5F696F2E630027
:101950002E2E2F68616C2F7372632F68616C5F731A
:1019600070695F6D5F73796E632E63002E2E2F6832
:10197000616C2F7372632F68616C5F757361727431
:101980005F73796E632E6300030000000400104053
:1019900000000300ADD800000000000000000000BF
:1019A0000000000000000000000000000000000037
:1019B0000000000000000000000000000000000027
:1019C000000000000C0020000000020000000000E9
:1019D0000900FF01000000002E2E2F68706C2F738D
:1019E0006572636F6D2F68706C5F736572636F6D86
:1019F0002E63000053414D443231205265616479B9
:101A00000D0A00004F4B3A204B313D3078253032E3
:101A1000582C204B323D3078253032580D0A0000CA
:101A200000000000000000000000000000000000B6
:101A300000000000000000000000000000000000A6
:101A40000000000000000000000000000000000096
:101A50000000000000000000000000000000000086
:101A60000000000000000000000000000000000076
:101A70000000000000000000000000000000000066
:101A8000232D302B2000686C4C0065666745464767
:101A900000303132333435363738394142434445EA
:101AA0004600303132333435363738396162636459
:101AB00065660000F8B5C046F8BC08BC9E46704795
:101AC000DD000000F8B5C046F8BC08BC9E46704773
:041AD000B50000005D
:101AD4000400002000000000401A0000601A00000A
:101AE400201A0000000000000000000000000000B8
:101AF40000000000000000000000000000000000E2
:101B040000000000000000000000000000000000D1
:101B140000000000000000000000000000000000C1
:101B240000000000000000000000000000000000B1
:041B340000000000AD
:00000001FF
