S01300004C454473776974636865722E73726563D3
S1130000382000202501000021010000210100000A
S113001000000000000000000000000000000000DC
S113002000000000000000000000000021010000AA
S11300300000000000000000210100002101000078
S11300402101000021010000210100002101000024
S11300502101000021010000210100002101000014
S11300602101000021010000210100002101000004
S113007021010000210100002101000021010000F4
S113008021010000210100002101000021010000E4
S113009021010000210100002101000021010000D4
S11300A021010000210100002101000021010000C4
S11300B00000000010B5064C2378002B07D1054B37
S11300C0002B02D0044800E000BF0123237010BDC0
S11300D00000002000000000580D0000084B10B57F
S11300E0002B03D00749084800E000BF0748036815
S11300F0002B00D110BD064B002BFBD09847F9E72D
S11301000000000004000020580D0000580D0000FD
S11301100000000010B5014B984710BD010300001A
S1130120FEE70000F8B5234A234B9A4209D0224B3C
S1130130204A03E011681960043304321F498B42DA
S1130140F8D31F4B02E000221A6004331D4A934285
S1130150F9D31D4AFF211D4B8B439360FD39902336
S11301605B001B4AD1501B4AD3780325AB430224BE
S11301702343D370D3780C27BB4308263343D3706F
S1130180154B987B30229043202210439873997B1F
S1130190B943314399739A7BAA4322439A730F4A12
S11301A0516880230B4353600D4B98470D4B984780
S11301B0FEE7C046580D00000000002000000020AB
S11301C0000000203800002000ED00E000000000E6
S11301D000700041005000410048004100400041CF
S11301E0690C00005D0A0000F0B5C64600B5C022E7
S11301F0D205102353619360254B26499962C0218F
S113020009068C4699624420195C0127B9430126EA
S11302103143C9B219543221585C0F25A843032431
S1130220A04644462043C0B25854202050619060F8
S1130230194898626046986245208446185CB84321
S11302403043C0B264461855585C363C20403024D4
S1130250A44664462043C0B258540E3151600F4A3C
S11302609A620F4A9A624622995C04208143995407
S1130270995CB9433143C9B2995433215A5CAA43B6
S113028040460243D2B25A5404BC9046F0BDC04624
S113029000440041100000402000004040000240A3
S11302A0000002C0044A136A04210B431362034A88
S11302B0034B5A807047C0460004004014400000BD
S11302C0000C004010B5044B984704490448054B02
S11302D09847054B984710BDA5020000000800424E
S11302E02000002011040000E901000010B50248BC
S11302F0024B984710BDC04610E000E0BD0300006B
S113030070B51F4B9847C022D205042353619360F4
S11303101C4B1D499962C021090699624224185D4B
S11303200121884318550534185D884318558025E4
S11303302D02556015489862154898625560083436
S1130340185D04263043C0B218559561185D884382
S113035018557534185D884318558020C005303C05
S113036010510C3C1051A82298500A489850DE2095
S11303701A5C8A431A54084B9847084B984770BD37
S11303807D0500000044004104000040008002405C
S1130390000002C0004000C0C5020000ED020000E1
S11303A0EFF31083036072B6BFF35F8F7047BFF340
S11303B05F8F036883F310887047000010B5024B09
S11303C01860024B984710BD1C000020D1090000A2
S11303D010B5044B1C68044B984701002000034BE4
S11303E0984710BD1C00002059050000DD090000DD
S11303F010B5044B1C68044B984701002000034BC4
S1130400984710BD1C00002071050000DD090000A4
S113041070B504000D00002817D0002913D0012066
S113042040220B490B4B98476560201D29000A4B5D
S11304309847002806DB094BA382094B2361094B2B
S1130440E360002070BD0020EAE70020E8E7C04632
S1130450B00C0000510500001D0600000080FFFFE5
S113046015050000D904000010B50400431E98418E
S1130470C0B257220349044B9847201D034B9847A9
S113048010BDC046B00C0000510500001908000062
S113049030B587B004000D00002815D0002911D014
S11304A00120B32209490A4B98472B6803936B68D0
S11304B00493AB6801930593201D03A9054B98474A
S11304C007B030BD0020ECE70020EAE7B00C0000E4
S11304D0510500004D08000070B584B004000E0002
S11304E01500431E9841C0B2A3220749074B984701
S11304F020000C38002302930196039501A9044BB4
S1130500984704B070BDC046B00C0000510500000F
S11305109104000070B584B004000E001500431E61
S11305209841C0B287220749074B984720000C38EE
S1130530029600230193039501A9044B984704B044
S113054070BDC046B00C00005105000091040000CD
S1130550002800D100BE704710B503006420584342
S113056001386421014B9847013010BD510B000044
S11305706423584383001B185800704710B5064B7A
S11305805A685A60054B9847054B9847054B98475E
S1130590FF20054B984710BD00400041CD050000E9
S11305A061090000AD090000AD050000C3070AD5CC
S11305B0054B802252009A60832252025A60024BF9
S11305C05B78DB09FBD17047000C0040064B1A7ABC
S11305D0D2B21A725A7AD2B25A729A7AD2B29A723F
S11305E0DA7AD2B2DA72704700040040024B9C46B9
S11305F06044800AC0B2704700F8FFBDC369DB07DE
S113060008D40368022213430360C3699B07FCD127
S11306100020704704204042FBE7000070B506004C
S11306200C000800714B98470023002B00D184E094
S11306300025002E00D18DE0002C00D188E001209F
S11306406B4A6C496C4B9847002D00D1CBE0E369B1
S1130650DB0721D42A786B781B021343AA7812048F
S11306601343EA7812061A431C231A40E3699B07D2
S1130670FCD123689B0709D5236802218B4323609F
S1130680E3699B07FCD1E3699B07FCD40123134373
S11306902360E3699B07FCD1E369DB07FCD4346086
S11306A02B786A7812021A43AB781B041A43EB784E
S11306B01B0613431C221340082B4DD0002C00D1E1
S11306C08DE0002D00D188E001204C4A49494A4B75
S11306D098472B786A7812021A43AB781B041A43A2
S11306E0EB781B061343464A13402360E3699B07D8
S11306F0FCD12B796A7912021A43AB791B041A4391
S1130700EB791B0613433F4A1340802292021343A2
S11307106360E3695B07FCD12B7B23736A7B302323
S1130720E2542B795B075CD101233371AA7BEB7B09
S11307301B021343F380002070BD002802D0013354
S1130740DBB272E71D01EA182F4D3C35AD1870E796
S1130750002075E7002073E7002C3CD0002D38D032
S113076001202A4A2349244B98472B786A7812029D
S11307701A43AB781B041A43EB781B061343204A35
S113078013402360E3699B07FCD12B796A79120239
S11307901A43AB791B041A43EB791B0613431C4A17
S11307A013401C4A13436360E3695B07FCD12B7A53
S11307B06A7A12021A43AB7A1B041A43EB7A1B06B9
S11307C0134363626A7B3023E254E369002BFCD158
S11307D0A7E70020C5E70020C3E7002075E7002055
S11307E073E70223A1E70D204042A5E7ED050000D1
S11307F0250900001C0D000051050000EF08000051
S1130800FCFEFFFFBF1DFDFFCC0C00000309000030
S1130810BFDDFDFF4002020010B5041E0ED00368C8
S1130820002B09D00120982212010549054B984755
S11308302068054B984710BD0020F4E70020F2E73C
S11308401C0D000051050000FD050000F0B5CE466A
S1130850474680B589B081460D0004680B68039350
S11308604B6804930023059306930679002814D05B
S1130870002C10D00120374A3749384B9847E36998
S11308805B0764D1E3699B07FCD123689B0720D4F1
S11308901420404256E00020EDE70020EBE7002260
S11308A02DE04878000247460743B84602310391D9
S11308B0013205924246A2625BB2002B35DB002076
S11308C000283ADB0598AB68984202D3069A934213
S11308D033D9237EDBB25A07E1D5A16A049A002AF0
S11308E008D0501C04901170012E03D9901C049060
S11308F0090A5170069A0192013206920122002AD5
S1130900DAD10699059A9142D6D34946C888D907BF
S1130910D2D50399002906D0481C03900878804654
S1130920012EBED8C4E78046C2E701235B4263833D
S11309308133237613204042C2E7237E9B07FCD0F9
S11309400323237609B00CBC90469946F0BD0420DD
S11309504042F7E7850A00001C0D00005105000025
S11309600F4B196A090C1A6A920F920709040D4871
S113097001400A430C490A431A629A6902210A4354
S11309809A611A7F1D310A401A77054BDB681B07F1
S1130990FBD5034A136A80210B4313627047C04698
S11309A0000800400000FF0F02030000024A9369A0
S11309B002218B439361704700080040024B034AB5
S11309C05A6005221A60704710E000E0FFFFFF0044
S11309D010B5014B984710BDBD090000080E0BE08F
S11309E00B4B0C4858609860094B1B68DB03FBD524
S11309F0094B9C4661441000421ED2B20028EFD13C
S1130A00034B59609960024B1B68DB03FBD57047AD
S1130A1010E000E0FFFFFF00010000FF70B584B0AC
S1130A2003AB1870597000930023019302330293AF
S1130A30C024E405802565610120054EB047694660
S1130A400448054B98470120B047A56104B070BD28
S1130A50D1030000200000209104000030B583B0D1
S1130A60314B9847C024E4058023A3602F4D304ABE
S1130A70AA62C0221206AA62A3617C3BA3602D492C
S1130A80A962AA62A3612C482C4B984780221202C7
S1130A9062604F216B5C04200343DBB26B54A261A0
S1130AA08022D2059823E25000210020244B98474D
S1130AB0002520E000208021C9059C23C022D20506
S1130AC0D15001001E4B984732201E4B984701A875
S1130AD01D4B9847C023DB051C68144A126A1B6926
S1130AE053401C40544001A8184B98472304EED5AA
S1130AF03220144B98476846134B9847C023DB05B4
S1130B001C680A4A126A1B6953401C4054406846D8
S1130B100E4B98472304EED401235D40EDB2002D23
S1130B20C8D0FF20C7E7C0461501000000440041BB
S1130B308000004004000040200000206904000000
S1130B401D0A0000F1030000A1030000AF03000030
S1130B50002243088B4274D303098B425FD3030AF8
S1130B608B4244D3030B8B4228D3030C8B420DD30B
S1130B70FF22090212BA030C8B4202D31212090299
S1130B8065D0030B8B4219D300E0090AC30B8B42D7
S1130B9001D3CB03C01A5241830B8B4201D38B0385
S1130BA0C01A5241430B8B4201D34B03C01A52412A
S1130BB0030B8B4201D30B03C01A5241C30A8B426D
S1130BC001D3CB02C01A5241830A8B4201D38B0258
S1130BD0C01A5241430A8B4201D34B02C01A5241FC
S1130BE0030A8B4201D30B02C01A5241CDD2C3096E
S1130BF08B4201D3CB01C01A524183098B4201D3EA
S1130C008B01C01A524143098B4201D34B01C01AD4
S1130C10524103098B4201D30B01C01A5241C3084C
S1130C208B4201D3CB00C01A524183088B4201D3BB
S1130C308B00C01A524143088B4201D34B00C01AA7
S1130C405241411A00D20146524110467047FFE713
S1130C5001B5002000F006F802BDC0460029F7D017
S1130C6076E770477047C04670B500260C4D0D4CB2
S1130C70641BA410A64209D1002600F05DF80A4DB9
S1130C800A4C641BA410A64205D170BDB300EB58F6
S1130C9098470136EEE7B300EB5898470136F2E780
S1130CA0440D0000440D0000440D0000480D0000F8
S1130CB02E2E2F68616C2F7372632F68616C5F73C3
S1130CC070695F6D5F73796E632E630000000000CE
S1130CD00000000000000000000000000000000010
S1130CE00000000000000000000000000000000000
S1130CF000000000000000000000000000000000F0
S1130D0000000000000000000C00200000000200B1
S1130D10000000000900FF01000000002E2E2F68D3
S1130D20706C2F736572636F6D2F68706C5F736581
S1130D3072636F6D2E630000F8B5C046F8BC08BC42
S1130D409E467047DD000000F8B5C046F8BC08BCFC
S10B0D509E467047B500000047
S9030000FC
